:0600000002221B020BE2CC
:03000B00020CC024
:03001300020D4A91
:06227400E4F53FF540F522
:04227A0041F5427573
:07227E002B00753200E4F5AE
:0422850037F538757C
:062289003901753A1175E0
:05228F003B27753C0037
:032294000200162F
:0500160012001B80FE3A
:03001B001211E4DB
:08001E009000011200FD80F8C2
:0100260022B7
:04002700AA82AB837B
:0B002B0075820112100B74C3C0E0745A
:0D00360012C0E07402C0E012193F158115E0
:0D004300811581754F027582011210AF907A
:0900500012CD75F00212101075BA
:090059004F037582011210AF90F3
:0900620012E175F0021210107594
:09006B004F047582011210AF90E0
:0800740012F475F002121010E5
:0E007C0012117BAC828C027B00BA0005BB0027
:03008A000280EF02
:08008D00BA1B05BB0002805400
:08009500BABB05BB0002801894
:08009D00BABC05BB0002801D86
:0800A500BABD05BB0002802278
:0800AD00BABE3DBB003A8027FA
:0D00B500C002C003120B95D003D002802BB7
:0D00C200C002C003120B95D003D002801EB7
:0D00CF00C002C003120B95D003D0028011B7
:0D00DC00C002C003120B95D003D0028004B7
:0400E9007A007B001E
:0800ED00BA0005BB000280030C
:0300F50002002BDB
:0400F8008A828B83EA
:0100FC0022E1
:0700FD00AA82AB83753C01F0
:0B01040075820112100B7408C0E0743B
:0D010F0013C0E07402C0E012193F15811505
:0D011C00811581754F037582011210AF909F
:0901290012E175F00212101075CC
:090132004F047582011210AF9018
:08013B00131475F002121010FC
:0D01430012117BAC828C027B00E53CB40104
:010150004668
:0D015100754F01758210C002C0031210AF7F
:08015E00D003D00275430075C7
:03016600440075DD
:0601690045018537828587
:0D016F003883C002C003120E44D003D0023A
:0E017C00900005E4F090000075F001C002C094
:0D018A0003121010D003D002753C00B2B774
:08019700E4BA0004BB000104FE
:03019F00FC70A150
:0601A200EC6003020211F3
:0801A800BA1B05BB0002805DDB
:0801B000BABB05BB0002801878
:0801B800BABC05BB0002802067
:0801C000BABD05BB0002802856
:0801C800BABE46BB0043802DC6
:0E01D000900000C002C003120473D003D002DE
:0201DE0080316E
:0E01E000900000C002C003120221D003D00222
:0201EE0080216E
:0D01F000C002C003120B95D003D002801492
:0E01FD00900000C002C003120817D003D00209
:02020B0080046D
:04020D007A007B00F8
:08021100BA0005BB00028003E6
:03021900020104DB
:04021C008A828B83C4
:0102200022BB
:0A022100AA82AB83C290D292D2DE13
:0B022B0075820112100B7428C0E074F3
:0D02360013C0E07402C0E012193F158115DD
:0D024300811581754F027582011210AF9078
:09025000133275F0021210107552
:0D0259004F037582011210AFACFA7D0075E5
:03026600760075AA
:03026900770075A6
:0D026C0078018C828D83120D8DAC82AD83E4
:0D027900AEF0C004C005C006743AC0E074C9
:0D02860013C0E07402C0E012193FE58124AE
:0D029300FAF581754F047582011210AF90CD
:0802A000133D75F0021210106D
:0E02A80012117BAC828C027B00BA0005BB00F9
:0302B6000280EFD4
:0902B900BA1B06BB000302045D40
:0802C200BABB05BB0002801D60
:0802CA00BABC05BB00028076FE
:0902D200BABD06BB00030203A93A
:0902DB00BABE06BB000302045781
:0302E400020461B0
:0602E700740125FA40023B
:0202ED0005FA10
:0D02EF00754F03758201C002C0031210AFED
:0C02FC00D003D002ACFA7D0075760075CE
:0303080077007506
:0D030B0078018C828D83C002C003120D8D1D
:0E031800AC82AD83AEF0D003D002C002C003B1
:0C032600C004C005C006743AC0E07413A7
:0E033200C0E07402C0E012193FE58124FAF524
:0803400081D003D00202046128
:06034800E5FA24FF50025B
:02034E0015FA9E
:0D035000754F03758201C002C0031210AF8B
:0C035D00D003D002ACFA7D00757600756C
:03036900770075A5
:0D036C0078018C828D83C002C003120D8DBC
:0E037900AC82AD83AEF0D003D002C002C00350
:0C038700C004C005C006743AC0E0741346
:0E039300C0E07402C0E012193FE58124FAF5C3
:0803A10081D003D002020461C7
:0D03A900754F03758201C002C0031210AF32
:0D03B600D003D002C002C0037451C0E07437
:0D03C30013C0E07402C0E012193F1581154F
:0E03D000811581D003D00290000075F001C0AD
:0E03DE0002C003121599D003D00290000075E2
:0E03EC00F001C002C0031214B2AC82AD83D087
:0D03FA0003D0028CFA754F03758201C0021A
:0E040700C0031210AFD003D002ACFA7D007516
:03041500760075F9
:03041800770075F5
:0D041B0078018C828D83C002C003120D8D0C
:0E042800AC82AD83AEF0D003D002C002C003A0
:0C043600C004C005C006743AC0E0741396
:0E044200C0E07402C0E012193FE58124FAF513
:0704500081D003D002800AF5
:06045700B290B292800495
:04045D007A007B00A6
:08046100BA0005BB0002800394
:0304690002022B61
:06046C00C2DE8A828B83D0
:010472002267
:0E047300AA82AB83D290C292D2DEC29575826D
:040481000112100B49
:0B04850075820112100B7461C0E0745E
:0D04900013C0E07402C0E012193F15811581
:0D049D00811581754F027582011210AF901C
:0904AA00133275F00212101075F6
:0D04B3004F0275820C1210AFACFA7D00757F
:0304C0007600754E
:0304C3007700754A
:0D04C60078018C828D83120D8DAC82AD8388
:0D04D300AEF0C004C005C006743AC0E0746D
:0D04E00013C0E07402C0E012193FE5812452
:0D04ED00FAF581754F037582011210AF748E
:0C04FA0073C0E07413C0E07402C0E01294
:0D050600193F158115811581754F0475820F
:0B051300011210AF90137E75F0021271
:02051E001010BB
:0D05200012117BAC828C027B00E53CB40123
:03052D0002800346
:030530000205EBD6
:07053300753C0075761075A0
:06053A00772775780075BB
:060540007900853382857D
:0605460034838535F0E569
:0D054C0036C002C003121724AC82AD83AE8E
:0A055900F0FFD003D0028522768562
:0305630023777586
:0C05660078007579008C828D838EF0EF98
:0E057200C002C0031217DFAC82AD83AEF0FFF3
:0A058000D003D002E4F533F534F5A2
:04058A0035F536F518
:04058E0022F52375BA
:0D0592004F0375820CC002C003C004C005F9
:0D059F001210AFD005D004D003D002757645
:0305AC0000757760
:0C05AF00007578018C828D83C002C003AF
:0E05BB00120D8DAC82AD83AEF0D003D002C025
:0D05C90002C003C004C005C006743AC0E0C3
:0D05D6007413C0E07402C0E012193FE5810B
:0805E30024FAF581D003D002D7
:0905EB00BA0006BB000302052062
:0905F400BA1B06BB00030208015A
:0805FD00BABB05BB0002801E21
:09060500BABC06BB000302068A20
:09060E00BABD06BB00030206F1AF
:09061700BABE06BB00030207A1F4
:03062000020805C8
:06062300E5FA24F6500880
:08062900D295E5FA24F6F5FA7A
:0D063100754F03758201C002C0031210AFA7
:0C063E00D003D002ACFA7D007576007588
:03064A00770075C1
:0D064D0078018C828D83C002C003120D8DD8
:0E065A00AC82AD83AEF0D003D002C002C0036C
:0C066800C004C005C006743AC0E0741362
:0E067400C0E07402C0E012193FE58124FAF5DF
:0806820081D003D0020208053B
:06068A00E5FA24EC500823
:08069000D295E5FA24ECF5FA1D
:0D069800754F03758201C002C0031210AF40
:0C06A500D003D002ACFA7D007576007521
:0306B1007700755A
:0D06B40078018C828D83C002C003120D8D71
:0E06C100AC82AD83AEF0D003D002C002C00305
:0C06CF00C004C005C006743AC0E07413FB
:0E06DB00C0E07402C0E012193FE58124FAF578
:0806E90081D003D002020805D4
:0D06F100754F03758201C002C0031210AFE7
:0D06FE00D003D002C002C0037451C0E074EC
:0D070B0013C0E07402C0E012193F15811503
:0E071800811581D003D00290000075F001C061
:0D07260002C003121599D003D002D29590A5
:0E073300000075F001C002C0031214B2AC82C7
:0D074100AD83D003D0028CFA754F03758292
:0E074E0001C002C0031210AFD003D002ACFAFB
:06075C007D0075760075BA
:03076200770075A8
:0D07650078018C828D83C002C003120D8DBF
:0E077200AC82AD83AEF0D003D002C002C00353
:0C078000C004C005C006743AC0E0741349
:0E078C00C0E07402C0E012193FE58124FAF5C6
:07079A0081D003D00280644E
:0607A100740125FA40027C
:0207A700C295F9
:0D07A900754F03758201C002C0031210AF2E
:0C07B600D003D002ACFA7D00757600750F
:0307C20077007548
:0D07C50078018C828D83C002C003120D8D5F
:0E07D200AC82AD83AEF0D003D002C002C003F3
:0C07E000C004C005C006743AC0E07413E9
:0E07EC00C0E07402C0E012193FE58124FAF566
:0707FA0081D003D00280044E
:040801007A007B00FE
:08080500BA0005BB00028003EC
:03080D000204855D
:06081000C2DE8A828B8328
:0108160022BF
:04081700AA82AB8383
:0B081B0075820112100B7493C0E07492
:0D08260013C0E07402C0E012193F158115E7
:0D083300811581754F0275820B1210AF7593
:03084000430075FD
:03084300440075F9
:06084600450185378285A3
:0C084C003883120E44AC82AD83AEF01273
:090858001010754F0475820112A5
:0908610010AF90139875F002121B
:02086A0010106C
:0D086C0012117BAC828C027B00E53CB401D4
:010879004737
:0D087A00754F0275820BC002C0031210AF53
:08088700D003D0027543007597
:03088F00440075AD
:0608920045018537828557
:0D0898003883C002C003120E44AC82AD8351
:0E08A500AEF0D003D0028C828D838EF0C002A4
:0D08B300C003121010D003D002753C00B23B
:0108C000B780
:0808C100BA0005BB000280A390
:0908C900BA1B06BB0003020B81FF
:0808D200BABB05BB0002801E49
:0908DA00BABC06BB000302099E32
:0908E300BABD06BB00030209AA1C
:0908EC00BABE06BB00030209B507
:0308F500020B856E
:0D08F800754F02758201C002C0031210AFDF
:0C090500D003D002C002C003C03AC03BC7
:0C09110074ADC0E07413C0E07402C0E0DC
:0E091D0012193FE58124FBF581D003D002754D
:0D092B004F03758201C002C0031210AFD04F
:0E09380003D0029013BF75F002C002C003127C
:0E0946001010D003D00290000075F001C00226
:0E095400C003121599D003D00290000075F078
:0E09620001C002C00312219FAC82AD83D003FE
:0E097000D002C374039C74808DF063F08095F8
:06097E00F04003020B85AE
:0E09840090000075F001C002C0031214B2858D
:0A099200823A85833BD003D00202B5
:02099C000B85C9
:08099E00153774FFB53702158F
:0109A6003818
:0309A700020B85BB
:0709AA000537E4B537020533
:0109B100380D
:0309B200020B85B0
:0D09B500754F0275820BC002C0031210AF17
:0E09C200D003D0029013CA75F002C002C00329
:0D09D000121010D003D002754F0375820184
:0E09DD00C002C0031210AFD003D0029013D49A
:0E09EB0075F002C002C003121010D003D0023B
:0E09F90090000075F001C002C003121599D0E5
:0E0A070003D00290000075F001C002C003127F
:0E0A1500219FAC82AD83D003D002C374049C39
:0E0A230074808DF063F08095F04003020B8527
:0D0A310075762E90000075F001C002C00324
:0E0A3E001216CDAC82AD83AEF0D003D002EC28
:040A4C004D4E600AA1
:0A0A50008C828D838EF0E412169F55
:0E0A5A0090000075F001C002C003C004C0058A
:0E0A6800C0061214B2D006D005D004D003D0C0
:0C0A76000275761075770EC002C003C038
:0D0A820004C005C00612170785823D85835C
:0D0A8F003ED006D005D004D003D002740183
:0D0A9C002CF9E43DFF8E0075762E89828FC7
:0E0AA9008388F0C002C003C004C005C006125E
:0E0AB70016CDAF82A883A9F0D006D005D004DA
:090AC500D003D002EF4849600A99
:0A0ACE008F82888389F0E412169FDE
:050AD8000CBC00010D43
:0E0ADD008C828D838EF0C002C003C007C00063
:0E0AEB00C0011214B2D001D000D007D003D049
:0C0AF9000275763CE4F577C002C003C033
:0E0B050007C000C001121707AC82AD83D001FB
:0C0B1300D000D007D003D002EC253DF547
:050B1F003DED353EF53F
:060B24003E0FBF000108B6
:0E0B2A008F82888389F0C002C0031214B2AC1F
:0C0B380082AD83D003D002EC253DF53DDA
:060B4400ED353EF53EAF69
:0C0B4A003DA83E7C007D00C374C09F7479
:0E0B5600A898E49C74808DF063F08095F050B8
:010B6400147C
:0E0B6500EF2440FFE83457F8EC34FFFCED3489
:060B7300FFFD8F3D883EEE
:040B7900853D3785FA
:040B7D003E3880047A
:040B81007A007B007B
:080B8500BA0005BB0002800369
:030B8D0002081B40
:040B90008A828B8347
:010B9400223E
:0B0B950075820112100B74DFC0E074C9
:0D0BA00013C0E07402C0E012193F1581156A
:030BAD008115812E
:070BB00012117BE58270F9D0
:030BB7000211AE7A
:0A0BBA00754F047582011210AF742C
:0C0BC400F4C0E07413C0E07402C0E01242
:080BD000193F15811581158103
:070BD80012117BE58270F9A8
:030BDF000211AE52
:0E0BE200C0E0C0F0C082C083C002C003C004E7
:0E0BF000C005C006C007C000C001C0D075D04F
:0B0BFE0010052BE4F52AA2B633FA25FF
:040C090041F541AAC6
:0C0C0D003FE540A2E713CA13CAFBE4A2B3
:0D0C1900B633FC7D0025E0FDE4FC2AF53F2C
:090C2600ED3BF540E52BB40B7623
:0C0C2F00752B00AA3F7B00BAF008BB0048
:010C3B0005B3
:050C3C00754201805F1C
:050C4100E542B4012EA4
:080C4600AA3F74802AF52C7509
:060C4E0042007532019026
:0A0C54000050E0FAAB3F7C00EB24F7
:0C0C5E0033F582EC3412F583E493FBEADA
:030C6A00B513338C
:070C6D00900050E4F0802C20
:090C7400AA3F7B008A148C2CE5D8
:090C7D0040FC3395E0FD8C2D755F
:090C86003201EA2433F582EB345B
:0C0C8F0012F583E493FAF58275D0001290
:050C9B00111E75D010D0
:050CA000E4F53FF54002
:0E0CA500D0D0D001D000D007D006D005D004AA
:0D0CB300D003D002D083D082D0F0D0E03248
:0D0CC000C0E0C0F0C0D075D0180522E4B52A
:040CCD0022020523D7
:070CD1000524E4B5240C0525
:050CD80025B52507050C
:050CDD0026B52602050A
:010CE20027EA
:070CE3000528E4B528020515
:010CEA0029E0
:070CEB00052AE52AB4FF0A07
:070CF200752A00E52B6003E9
:030CF900752B0058
:060CFC00E528B53A42E5CF
:040D020029B53B3D97
:060D0600E4F528F529E5E3
:0A0D0C0039FA3395E0FBEA2537F5CC
:050D160037EB3538F554
:040D1B0038AA37AB10
:0D0D1F00387C007D00C374BF9A74A89BE46B
:0C0D2C009C74808DF063F08095F0500501
:050D3800E4F537F53879
:060D3D0074015539F53C7C
:070D4300D0D0D0F0D0E03267
:0C0D4A00C0E0C0D075D0200533E4B53304
:070D56000C0534B53407055C
:050D5D0035B53502056B
:010D6200365A
:050D6300D0D0D0E03209
:0A0D6800AA82AB83BA0007BB0004A7
:040D72007A017B0087
:040D76007C007D0080
:070D7A00C3EC9AED9B500B46
:020D81007EB43E
:020D8300DEFE92
:070D85000CBC00F10D80EE33
:010D8C002244
:060D8D00AA82AB837C008A
:090D9300C374E79A74039B500B32
:0B0D9C000CEA2418FAEB34FCFB80EC9E
:050DA700AD76AE77AF50
:0C0DAC007874302CFC8D828E838FF01246
:060DB800169F757B008A06
:030DBE00798B7AB4
:0A0DC100C374639579E4957A50102D
:070DCB00057BE579249CF58E
:060DD20079E57A34FFF51B
:030DD8007A80E638
:0D0DDB0074012DF8E43EF98F047430257B7F
:0E0DE800FA888289838CF012169F74022DFA0D
:0D0DF600E43EFB8F04A87975F00AE8842420
:0E0E030030F98A828B838CF012169F74032DB7
:0E0E1100FAE43EFB8F0475F00AE884E5F02455
:0E0E1F0030F88A828B838CF012169F74042D9B
:0E0E2D00FAE43EFB8F048A828B838CF0E41281
:080E3B00169F8D828E838FF05B
:010E4300228C
:0C0E4400AA82AB83E4F546F5478A068BD2
:010E5000079A
:0C0E5100C3740F9E740E9FE433FC8546B2
:030E5D004D854779
:080E60004E8E028F03EC6012BC
:070E68000546E4B546020552
:010E6F00473B
:0A0E7000EE24F0FEEF34F1FF80D70E
:080E7A00E5467004E547600243
:020E82008006E8
:060E8400754D0CE4F54E73
:090E8A00C002C003C04DC04E744B
:0C0E930009C0E07414C0E07402C0E0C0AC
:040E9F0043C044C048
:0D0EA300451218C8E58124F8F581D003D070
:0C0EB0000275763CE4F5778A828B83C0E3
:0B0EBC0002C00312142485824D8583C0
:070EC7004ED003D002757646
:050ECE00487577007576
:060ED3007800854D8285C8
:0D0ED9004E83C002C003120D8DD003D00265
:0A0EE60074032543FCE43544FDAE1F
:0B0EF00045AF4A8C828D838EF0EF121C
:090EFB00169F74042543FCE43544
:050F040044FDAE45AF05
:0D0F09004B8C828D838EF0EF12169F7405C5
:080F16002543FCE43544FDAE67
:0D0F1E00458C828D838EF0743A12169F75FB
:0A0F2B00763CE4F5778A828B83128E
:070F3500179285824D8583B0
:030F3C004E757679
:050F3F00487577007504
:060F44007800854D828556
:080F4A004E83120D8D74062583
:070F520043FAE43544FBAC57
:0B0F590045AD4A8A828B838CF0ED12BC
:090F6400169F74072543FAE435D9
:050F6D0044FBAC45ADA2
:0D0F72004B8A828B838CF0ED12169F740861
:080F7F002543FAE43544FBAC04
:0C0F8700458A828B838CF0E412169F8553
:060F9300438285448385C2
:020F990045F021
:010F9B002233
:0E0F9C00AA82C002120FCBD002C2A2740F555F
:0E0FAA0080FB74F05A2BF580D2A2C2A2740F05
:0E0FB8005580FBEAC454F0FA74F05A2BF58011
:040FC600D2A2C2A24F
:010FCA002204
:0B0FCB00D287E4A2A333FAC2A3D2A590
:0E0FD600D2A2900001C002120D68D002E4A267
:0C0FE4008733FBC2A2D2A2C2A2EB70E6CF
:0E0FF000C2A5C287EA24FF92A3900001C003AD
:070FFE00120D68D0038B8285
:0110050022C8
:05100600D2A3020F9CC3
:05100B00C2A3020F9CCE
:08101000AA82AB83ACF07D0065
:0E101800ED2AFEE43BFF8C008E828F8388F071
:061026001221C7FE601854
:0E102C008E82C002C003C004C005121006D0A0
:0A103A0005D004D003D0020D80D4CD
:011044002289
:0E104500C2A5C2A2C2A39000C8120D68758099
:0E10530038D2A2900001120D68C2A29000C80F
:0E106100120D68D2A2900001120D68C2A2907A
:0E106F000064120D68D2A2900001120D68C23A
:0D107D00A2900014120D68758028D2A29078
:0E108A000001120D68C2A2900014120D6875CC
:0E109800822812100B75820C12100B75820646
:0910A60012100B75820102100BFF
:0A10AF00AA821AE54FB40102801571
:0710B900E54FB402028016AE
:0710C000E54FB403028017A5
:0710C700E54FB4042280187C
:0810CE0074802AF58202100B68
:0810D60074C02AF58202100B20
:0810DE0074942AF58202100B44
:0810E60074D42AF58202100BFC
:0110EE0022DF
:0D10EF00AA828A4F758201C0021210AFD094
:0C10FC0002C002740FC0E07414C0E07465
:0E11080002C0E012193F158115811581D00239
:081116008A4F7582010210AF3F
:0E111E00AA82900050EAF0900052E0FB8B0491
:07112C007D000CBC00010D69
:0E11330053040F7D00900051E0FE7F00ECB5EC
:061141000608EDB50704ED
:0411470090000122F1
:0D114B0074012BFC900052F07D00EB24534A
:0D115800F582ED3400F583EAF053040F90AA
:071165000052ECF0900000C5
:01116C002260
:0A116D00900050E4F0900051F09063
:031177000052F033
:01117A002252
:0E117B00900052E0FA900051E0FBEAB5030448
:041189007582002249
:0D118D0074012BFA900051F07C00EB24530C
:0D119A00F582EC3400F583E0FB53020F906A
:0611A7000051EAF08B820A
:0111AD00221F
:0C11AE0012117BAA828A03BA000280F4AE
:0211BA008B8226
:0111BC002210
:0711BD00AA82BA08028008B3
:0411C400BA0A012240
:0411C800BA0D132227
:0E11CC0075820412100B7582201210067582B7
:0411DA000602100BEE
:0511DE008A82021006E8
:0111E30022E9
:0E11E400758E11D2B2D2B612116D438F031266
:0611F2001045E4F524F5B0
:0411F80025F526F5BE
:0411FC0027F528F5B6
:0412000029F52AF5AD
:0D1204002BE589758902758A38758C38D202
:0E1211008CD2A9D288D28AD2A8D2AAD2AF7526
:0E121F00820112100B85D9D943DA4275EA001C
:05122D0075FA00C2DEAD
:011232002299
:0E12330000C300BFBDBBBCC600C4C2C0BE0924
:0E124100000000000000005131000000595371
:0E124F0041573200004358444534330000201C
:0E125D00564654523500004E4248475A36005D
:0E126B0000004D4A55373800002C4B494F30DB
:0E1279003900002E2D4C005027000000000010
:0E128700002B000000000D0000000000000021
:0E129500000000000800000000CB0000000078
:0E12A3000000D000CDC81B00C50000000000F8
:0E12B1000000000000C100000000000000006E
:0412BF00000000002B
:0A12C3004D656E75207375623A00E8
:0E12CD0053656C656374205375626D656E75B4
:0612DB0020776974680031
:0E12E100204631202020463220202046332097
:0512EF00202046340040
:0E12F40053454C312053454C322053454C336A
:061302002053454C3400AD
:0C130800476C61766E69206D656E7500A3
:0E1314004C4142562050574D202053454C333B
:061322002054494D450076
:0A1328004D656E752070776D3A0078
:081332004343415030483A00EA
:03133A0025730018
:0E133D00202B312020202D312020534554201C
:06134B0020534D45520045
:0E1351004E6F766120767265646E6F73743A2B
:02135F0020006C
:0E1361004D656E752070776D5F6C6162766110
:04136F006A613A0075
:0B1373004672656B76656E63613A00A0
:0E137E00202D31302020202D323020205345EC
:07138C0054202054473000FB
:0513930054696D6500C6
:0E139800436F6D702E20202D317320202B31DD
:0713A60073202053455400A1
:0E13AD00202020317320636F6D70203D2025BD
:0413BB00642020008A
:0B13BF004E657720636F6D703A2000D0
:0A13CA0068682E6D6D2E737320000D
:0B13D4004E65772074696D653A2000BB
:0E13DF005375626D656E75206E656465666996
:0713ED006E6972616E2100C0
:0E13F400507265737320616E79206B657920ED
:071402002E2E2E20202000F9
:06140900253032643A00B8
:0E140F0020202020202020202020202020200F
:07141D002020202020200008
:051424007A10E4FBFC5E
:0E142900E58225E0F582E58333F583EB33FBA6
:0C143700EC33FCEB9576F5F0EC9577407B
:0714430006FCABF04382013F
:03144A00DADD22C6
:08144D00FB7A20E4FCFDFEFF28
:0E145500E5822582F582E58333F583E5F033E9
:0B146300F5F0EB33FB4017DAE98042A4
:0E146E00E5822582F582E58333F583E5F033D0
:05147C00F5F0EB33FB6D
:0E148100EC33FCED33FDEE33FEEF33FFEC9564
:06148F0076ED9577EE9565
:0814950078EF95794013EC9506
:08149D0076FCED9577FDEE955C
:0914A50078FEEF9579FF43820106
:0214AE00DABEA4
:0214B000EB222D
:06224A00E478FFF6D8FD68
:082228007900E94400601B7A13
:052230000090229778E8
:032235006375A02E
:0C22380000E493F2A308B8000205A0D94E
:06224400F4DAF275A0FFC0
:0E14B200AA82AB83ACF07D007E008A078B001F
:0214C0008C019D
:0C14C2008F82888389F01221C7FA602E07
:0C14CE00C374B98AF063F08095F0400709
:0714DA00EA648094B0501B8E
:0E14E1008F82888389F01221C7FABA2D02800B
:0114EF000CF0
:0514F000BA2B02800789
:0514F5000FBF00C90853
:0214FA0080C6AA
:0D14FC008F02880389048F82888389F01293
:0815090021C7FFE4BF2D01041E
:05151100F888017003E1
:03151600BF2B05E3
:051519000ABA00010BFD
:0C151E008A828B838CF01221C7FF605A78
:08152A00C3EF648094B040524D
:0B15320074B98FF063F08095F0404723
:0C153D00C00175760AE4F5778D828E837C
:0E154900C002C003C004C007C001121707850E
:0C1557008208858309D001D007D004D0A1
:0E15630003D002EF3395E0F8EF24D0FFE83418
:0C157100FFF8EF2508FDE83509FE0ABA76
:03157D0000010B5F
:04158000D001809A7C
:03158400E9600912
:09158700C3E49DFAE49EFB80041C
:041590008D028E0337
:041594008A828B8339
:011598002230
:0815990085820A85830B85F0B1
:0415A1000CAD0AAED5
:0715A5000BAF0C7800790088
:0E15AC00C005C006C007C000C0011211AEAAE3
:0E15BA0082D001D000D007D006D005BA0802BA
:0215C800800D94
:0515CA00BA0A0280676F
:0515CF00BA0D0280626C
:0315D40002166E8E
:0415D700E84960D1AE
:0E15DB00758208C005C006C007C000C001121E
:0E15E90011BDD001D000D007D006D00575820C
:0E15F70020C005C006C007C000C0011211BD13
:0E160500D001D000D007D006D005758208C0F5
:0E16130005C006C007C000C0011211BDD00105
:0D162100D000D007D006D0051DBDFF011E72
:05162E0018B8FF0119CE
:031633000215ACF1
:0E16360075820DC005C006C0071211BDD00799
:0E164400D006D00575820AC005C006C0071288
:0E16520011BDD007D006D0058D828E838FF09B
:08166000E412169F850A828541
:061668000B83850CF0224B
:0E166E008D828E838FF0EA12169FA3AD82AE9E
:06167C008308B80001091B
:0D1682008A82C005C006C007C000C001126A
:0D168F0011BDD001D000D007D006D005025B
:02169C0015AC8B
:01169E002229
:0E169F00C0E0E5F060101460171460071460DE
:0516AD00151414600398
:0316B200D0E02263
:0A16B500D0E0C000A882F6D00022A9
:0416BF00D0E0F02265
:0A16C300D0E0C000A882F2D000229F
:0616CD00AA82AB83ACF021
:0C16D3008A828B838CF01221C7FD600D11
:0616DF00EDB57602800764
:0716E5000ABA00EA0B80E7DE
:0D16EC008A828B838CF01221C7FDB5760732
:0716F9008A828B838CF02232
:0617000090000075F000EE
:0117060022C0
:0C170700E5828576F0A4C582C0F08577ED
:0D171300F0A4D0F025F0C5838576F0A42564
:0417200083F58322A8
:0D172400AAF0FBE5828576F0A4FCADF0E5AF
:0D173100838576F0A42DFDE435F0FEE58201
:0D173E008577F0A42DFDE5F03EFEE433FFBD
:0D174B00EA8576F0A42EFEE5F03FFFE58371
:0D1758008577F0A42EFEE5F03FFFE58285C9
:0C17650078F0A42EFEE5F03FFFEB857647
:0D177100F0A42FFFEA8577F0A42FFFE58399
:0C177E008578F0A42FFFE5828579F0A4A7
:08178A002F8EF08D838C82226A
:08179200E576457760467A0117
:07179A00E57625E0F576E598
:0917A10077334012F577E58295DB
:0A17AA0076E583957740030A80E698
:0317B400C3E57713
:0717B70013F577E57613F549
:0117BE0076B4
:0C17BF00C3E5829576F5F0E58395774050
:0617CB0005F58385F082A4
:0717D100C3E57713F577E58E
:0617D8007613F576DAE15C
:0117DE0022E8
:082250007800E84400600A79FF
:032258000075A06E
:06225B0000E4F309D8FCC9
:082261007863E84400600C7989
:0B22690001900000E4F0A3D8FCD9FABB
:0E17DF00FBC2D530E715D2D5E4C39582F58262
:0D17ED00E49583F583E495F0F5F0E49BFBB3
:0C17FA00E57930E717B2D5E4C39576F529
:0518060076E49577F582
:05180B0077E49578F57B
:0518100078E49579F574
:011815007959
:0E181600EB12144D30D514FBE4C39582F5821D
:0D182400E49583F583E495F0F5F0E49BFB7B
:011831002294
:08183200C00D85810DC082E5A7
:0D183A000D24FBF886820886830886F012D4
:0A18470021C7FEA31221C7FFA31260
:0D18510021C7FA74012EFBE43FFC8A05E577
:0D185E000D24FBF886820886830886F0EBD7
:0B186B0012169FA3EC12169FA3ED12B3
:0D187600169F8E828F838AF0A80D08E6125F
:02188300169FAE
:06188500850D81D00D224B
:08188B0085825485835585F028
:0318930056756126
:051896005475620075AD
:04189B006300855011
:03189F006485510C
:0318A20065855207
:0318A50066855302
:0518A8006790183212E8
:0918AD001A15AA82AB83AC54ADFC
:0B18B60055AE568C828D838EF0E4123C
:0618C100169F8A828B8352
:0118C70022FE
:0618C800C00D85810DE555
:0618CE000D24F8F567E5AA
:0718D4000D24FBFA8A617587
:0618DB006200756300E5E8
:0818E1000D24F8F88664088666
:0518E900650886669011
:0A18EE001832121A15AA82AB83E526
:0D18F8000D24FBF886040886050886068C82
:0D190500828D838EF0E412169F8A828B8300
:06191200850D81D00D22BD
:06191800C00D85810D12D7
:02191E0011BDF9
:06192000850D81D00D22AF
:0819260085826485836585F06C
:05192E0066E4F561F51F
:0419330062F5638571
:031937000E6790A8
:05193A001918021A1546
:06193F00C00D85810DE5DD
:071945000D24FBF567E4F53A
:04194C0061F562F5EA
:0719500063E50D24FBF8869E
:06195700640886650886A5
:05195D0066901918124C
:061962001A15AA82AB83F6
:06196800850D81D00D2267
:0C196E00AA82C374099AB3E433FB60063C
:06197A0074302AFB800F0F
:031980003000062E
:0619830074572AFC8004E9
:0419890074372AFC89
:02198D008C03C9
:05198F00C059C05AC060
:061994005B74A4C0E074C6
:06199A0019C0E0C057C0B7
:0419A000588B8222BC
:0619A4001581158115817B
:0119AA00221A
:0E19AB00E582FAC4540FF582C00212196ED004
:0919B90002740F5AF58202196E46
:0619C20085827675772096
:0419C800E577604817
:0819CC00E56025E0FCAD5CAE16
:0419D4005DAF5EE5C0
:0C19D8005FFB235401FA4CF560ED2DFD7F
:0C19E400EE33FEEF33FFEB33FB8D5C8E27
:0419F0005D8F5E8B1E
:0519F4005FC3E56095F2
:0319F90076401421
:0619FC00E560C39576F5DD
:071A0200607401455CFAABC2
:041A09005DAC5EADC5
:031A0D005F8A5C91
:041A1000157780B412
:011A140022AF
:071A15008582578583588587
:031A1C0061598588
:031A1F00625A8583
:041A2200635BE4F529
:031A260074F575DF
:051A2900AC64AD65AEE8
:0D1A2E00668C828D838EF01221C7FF74013B
:081A3B002CF564E43DF5658E15
:081A430066EFFC70030221872D
:051A4B00BC2502800330
:031A50000221610F
:051A5300C201C202C245
:041A580003C204C2FF
:051A5C0005756800C2E1
:041A610006C207C2F0
:071A6500087569007FFFAA6C
:041A6C0064AB65AE54
:011A7000660F
:0E1A71008A828B838EF01221C7FCA3AA82AB5F
:061A7F00838A648B658E72
:041A850066BC2526F0
:051A8900C059C05AC065
:061A8E005B749EC0E074D1
:061A94001AC0E0C057C0BB
:041A9A00588C8222C0
:0C1A9E001581158115810574E4B57402F2
:021AAA000575C0
:031AAC00021A29F2
:0D1AAF008C82C002C003C004C006C0071234
:0E1ABC0021EFE582D007D006D004D003D0027F
:021ACA00602694
:031ACC00BFFF1544
:0C1ACF00E56975F00AA4FDEC24D02DF5AB
:031ADB006960023D
:021ADE008091F5
:041AE000D202808D21
:0E1AE400EF75F00AA4FDEC24D02DFF021A715C
:031AF200BC2E0502
:051AF5007F00021A71E0
:0D1AFA008C82C002C003C004C006C00712E9
:0D1B07002207E58224FF9200D007D006D00F
:081B140004D003D002300003ED
:031B1C005304DF90
:051B1F00BC200280550E
:051B2400BC2B02804B08
:051B2900BC2D0280410B
:051B2E00BC4202804BE7
:051B3300BC43028050DC
:061B3800BC4403021DCFB6
:061B3E00BC4603021DE598
:061B4400BC4903021DCFA5
:051B4A00BC4C028034D8
:061B4F00BC4F03021DD68D
:061B5500BC5003021D0755
:051B5B00BC5302805B99
:061B6000BC5503021DDB71
:061B6600BC5803021DE063
:031B6C00021DE96E
:051B6F00D201021A7111
:051B7400D203021A710A
:051B7900D204021A7104
:051B7E00D206021A71FD
:051B8300D207021A71F7
:0C1B8800E56724FEF888678605088607DC
:081B9400188D82C059C05AC02F
:061B9C005B74AAC0E074B6
:061BA2001BC0E0C057C0AB
:021BA8005822C1
:0C1BAA001581158115810574E4B57402E5
:021BB6000575B3
:031BB800021E0CFE
:0C1BBB00E56724FDF888678605088607AA
:0A1BC70008860618188D5C8F5D8EED
:0D1BD1005E8D828F838EF012219FAD82AE5B
:061BDE00838D0420015B71
:061BE400C3EC95695055A9
:071BEA00E569C39CF569AE3B
:041BF10074AF75AAAE
:011BF5006986
:0C1BF600C0048A051A8A69E4BD000104DD
:0A1C0200FD8E748F75D004ED703371
:0C1C0C00C002C004C006C007C059C05A86
:071C1800C05B742AC0E074F8
:061C1F001CC0E0C057C02C
:051C2500587582202229
:0E1C2A00158115811581D007D006D004D00297
:051C38000EBE00BA0F12
:021C3D0080B76E
:041C3F00AA74AB7563
:071C4300855C82855D83854D
:071C4A005EF01221C7FD8AC4
:061C5100748B75ED605577
:041C5700855C7185B2
:031C5B005D728532
:051C5E005E7374012516
:071C630071FDE43572FEAFD4
:041C6A00738D5C8E8C
:041C6E005D8F5E85A3
:061C72007182857283857A
:0D1C780073F01221C7FDC002C003C004C0FC
:041C850059C05AC028
:061C89005B7499C0E074D9
:061C8F001CC0E0C057C0BC
:041C9500588D8222C2
:0E1C9900158115811581D004D003D0020ABA3E
:031CA700009A0B95
:021CAA00809721
:061CAC00200103021E0CE2
:091CB200C3EC95694003021E0C0D
:071CBB00E569C39CF569AF68
:011CC20069B8
:0A1CC3008F051F8F69E4BD000104C6
:091CCD00FD8A748B75ED600302C1
:021CD6001E0CE2
:0B1CD800C002C003C007C059C05AC0C2
:061CE3005B74F4C0E07424
:061CE9001CC0E0C057C062
:051CEF0058758220225F
:0E1CF400158115811581D007D003D0020ABAE0
:031D020000BF0B14
:021D050080BCA0
:0C1D0700E56724FDF8886786050886065D
:0A1D130008860718188D5C8E5D8F9E
:081D1D005EC37403955E5004DF
:041D25007D048002B7
:021D2900AD5EAD
:091D2B00ED90218E93FDC059C01A
:041D34005AC05B74C2
:081D380046C0E0741DC0E0C0CC
:061D400057C0588D8222FD
:0B1D4600158115811581C059C05AC0DD
:061D51005B7462C0E07447
:061D57001DC0E0C057C0F2
:051D5D005875823A22D6
:0B1D6200158115811581C059C05AC0C1
:061D6D005B747EC0E0740F
:061D73001DC0E0C057C0D6
:051D79005875823022C4
:0B1D7E00158115811581C059C05AC0A5
:061D89005B749AC0E074D7
:061D8F001DC0E0C057C0BA
:051D9500587582782260
:0A1D9A00158115811581E55E6018C2
:071DA400E55EB403028011AB
:091DAB00855D821219AB7402255A
:051DB40074F574E43534
:031DB90075F57548
:091DBC00855C821219AB74062546
:051DC50074F574E43523
:051DCA0075F575803D78
:071DCF00D20575680A803699
:051DD600756808803172
:051DDB0075680A802C70
:051DE00075681080276A
:041DE500D20880237D
:051DE900C059C05AC002
:061DEE005B74FEC0E0740E
:061DF4001DC0E0C057C055
:041DFA00588C82225D
:0C1DFE001581158115810574E4B574028F
:021E0A0005755C
:061E0C00200803021E90F5
:0C1E1200E56724FCF88867860508860652
:0C1E1E000886070886021818188D5C8ED4
:041E2A005D8F5E8AE0
:031E2E005F755C81
:031E310094755D48
:051E340021755E02852E
:031E39007471853C
:021E3C007572BD
:051E3E00AA5CAB5DACE5
:0C1E43005E74012AFDE43BFE8C078D5C00
:0B1E4F008E5D8F5E8A828B838CF01208
:071E5A0021C7FD8D04857115
:031E610074857213
:071E640075ED7003021A295D
:051E6B00C059C05AC07F
:061E70005B7480C0E07409
:061E76001EC0E0C057C0D1
:041E7C00588C8222DA
:0C1E80001581158115810571E4B571B262
:021E8C000572DD
:021E8E0080AE24
:071E9000E5687003021A2946
:041E970075706F30C3
:021E9B00062C13
:0C1E9D00E56714F888678606EE3395E0D0
:081EA900FFFDFA8E5C8F5D8DD8
:041EB1005E8A5F20C6
:021EB500055EC8
:0B1EB700AD5C7E007F007A008D5C8E29
:041EC2005D8F5E8A48
:031EC6005F804CEE
:031EC90030071FC0
:0C1ECC00E56724FCF88867860508860698
:0C1ED8000886070886021818188D5C8E1A
:041EE4005D8F5E8A26
:031EE8005F802AEE
:0C1EEB00E56724FEF88867860508860677
:0C1EF70018EE3395E0FFFA8D5C8E5D8FD5
:041F03005E8A5F2073
:021F0700050CC7
:091F0900AD5CAE5D7F007A008F33
:031F12005E8A5F85
:031F15003005256F
:051F1800AA5CAB5DAD09
:071F1D005EE55FFE30E717EF
:0E1F2400C3E49AFAE49BFBE49DFDE49EFE8A72
:041F32005C8B5D8DDA
:051F36005E8E5F8002D9
:021F3B00C205DD
:061F3D00D209A8707A0031
:0B1F4300756000856882C002C00012BB
:091F4E0019C2D000D00220090DD7
:0D1F5700E560C4FB8605ED4BA6E018800494
:041F6400AB60A603C5
:081F68000A8A04B2098870E541
:041F70005C455D452A
:051F74005E455F70CA2C
:041F7900E5696002B4
:021F7D008003DF
:031F7F0075690180
:031F8200200254E6
:031F8500200151E7
:091F880074012CFAAB74AD75AEC6
:011F910069E6
:0B1F9200C3EA9EE433FF8B748D758E54
:041F9D0069EF603850
:0D1FA100C002C003C004C005C006C059C086
:041FAE005AC05B7446
:081FB200C1C0E0741FC0E0C0D3
:071FBA0057C0587582202278
:0E1FC100158115811581D006D005D004D003FE
:071FCF00D0020BBB00010D65
:031FD6001E80B9B1
:031FD90030052CA4
:071FDC00C004C059C05AC047
:061FE3005B74F4C0E07421
:061FE9001FC0E0C057C05C
:051FEF005875822D224F
:0C1FF400158115811581D0040574E4B539
:0420000074020575EC
:042004001569806179
:05200800BC0002805C39
:03200D0030032C71
:07201000C004C059C05AC012
:062017005B7428C0E074B8
:06201D0020C0E0C057C026
:052023005875822B221C
:0C202800158115811581D0040574E4B504
:0420340074020575B8
:042038001569802D79
:03203C0030042A43
:07203F00C004C059C05AC0E3
:062046005B7457C0E0745A
:06204C0020C0E0C057C0F7
:052052005875822022F8
:0C205700158115811581D0040574E4B5D5
:042063007402057589
:022067001569F9
:0320690020015300
:05206C00AA74AB75AD84
:012071006905
:0C2072008D061D8D69C3EC9EE433FE8AD0
:06207E00748B75EE604C4E
:0320840030020423
:042087007E30800225
:02208B007E20B5
:0C208D00C002C003C004C005C059C05A06
:07209900C05B74AAC0E074F3
:0620A00020C0E0C057C0A3
:0420A600588E8222AC
:0E20AA00158115811581D005D004D003D00218
:0520B8000ABA00B60B9E
:0220BD0080B3EE
:0620BF00C3EC9569500816
:0820C500E569C39CF569800385
:0320CD0075690032
:0520D000A870AA74AB2A
:0320D500758C0502
:0A20D8008D061D8A748B75EE6035CD
:0520E200B20920090C09
:0C20E700088606EEC4540FFE8E608007D1
:0720F3008606740F5EF56024
:0C20FA00856082C002C003C005C0001257
:0E210600196ED000D005D003D0020ABA00C472
:012114000BBF
:0221150080C187
:06211700200103021A2959
:02211D00AD69AA
:0C211F008D061DC3E49EE433FE8A748B21
:07212B0075EE7003021A2992
:0B213200C002C003C005C059C05AC065
:06213D005B744EC0E0746B
:0621430021C0E0C057C0FE
:05214900587582202200
:0E214E00158115811581D005D003D0020ABA83
:03215C0000C10BB4
:02215F0080BE40
:05216100C059C05AC086
:062166005B7476C0E0741A
:06216C0021C0E0C057C0D5
:04217200588C8222E1
:0C2176001581158115810574E4B5740213
:022182000575E1
:03218400021A2913
:062187008574828575835A
:01218D00222F
:06218E00495843502D00EA
:0B2194003C4E4F20464C4F41543E0093
:0A219F00AA82AB83ACF07D007E0045
:0E21A9008A828B838CF01221C7FFA3AA82AB1F
:0421B70083EF60074B
:0721BB000DBD00EA0E80E7F4
:0421C2008D828E83F9
:0121C60022F6
:03221B0075817B4F
:0A221E00122203E58260030200169D
:0E21C700E5F060101460151460141460131419
:0621D50014600374FF22F8
:0821DB00C000A882E6D000223A
:0221E300E022F8
:0221E500932243
:0821E700C000A882E2D0002232
:0521EF00AA82BA3000D5
:0221F4004009A0
:0521F600EA24C64004CC
:0421FB0075820122C6
:0321FF00758200E6
:0122020022B9
:03220300758200E1
:0122060022B5
:05220700AA82BA61008B
:02220C00400987
:05220E00EA24854004F4
:0422130075820122AD
:03221700758200CD
:01221A0022A1
:00000001FF
